:100000000C943D000C94100E0C944F0E0C944F0E5B
:100010000C944F0E0C944F0E0C944F0E0C944F0EEC
:100020000C944F0E0C944F0E0C944F0E0C944F0EDC
:100030000C944F0E0C944F0E0C944F0E0C944F0ECC
:100040000C94200D0C944F0E0C94630D0C944F0ED9
:100050000C944F0E0C94FD0D0C944F0E0C944F0EFF
:100060000C944F0E0C944F0E010002F48002F40227
:10007000FC001CAC02FC0309800011241FBECFEF62
:10008000D8E0DEBFCDBFE8E6F0E040E017C0B591B4
:10009000A59135912591059107FD0CC0959185910C
:1000A000EF01F92FE82F05900D92A217B307D9F7AA
:1000B000FE0104C01D92A217B307E1F7E937F40768
:0E00C00031F70E94D50C0C943B0EF894FFCF44
:1000CE000000000000000000000000000000000022
:1000DE000000000000000000000000000000000012
:1000EE000000000000000000000000000000000002
:1000FE0000000000000000000000000000000000F2
:10010E000000000000000000000000000000C00120
:10011E00C001C001C001C001C001C001C000C000CB
:10012E00C000C000C000C000C00000000000C00140
:10013E00C001C0010000000000000000000000002F
:10014E00000000000000000000000000000030066B
:10015E003006300630063006300600000000000083
:10016E000000000000000000000000000000000081
:10017E000000000000000000000000000000000071
:10018E000000000000000000000000000000000061
:10019E000000200C200C300C3004FE3FFE3F3006D9
:1001AE003006300630063806FE1F180618021802F2
:1001BE0018031803000000000000000000000000FB
:1001CE00000000000000000000000000000300011D
:1001DE008001F00FF80F9C018C018C019C01FC003A
:1001EE00F801E007C00FC01CC018C0184018401E10
:1001FE00FC0FFC03600060006000000000000000C7
:10020E000000000000000000000000000000383078
:10021E007E306618420C420C66067E073C03800157
:10022E00C001C000600C603F3033983198218C3192
:10023E00063F061E00000000000000000000000047
:10024E0000000000000000000000000000000000A0
:10025E00F003F80718061C061C061C07B803F80165
:10026E00F000FC18CC19861B861F061F060E0E1EEC
:10027E00FC3FF83900000000000000000000000004
:10028E000000000000000000000000000000C0019F
:10029E00C001C001C001C001C0010000000000008B
:1002AE000000000000000000000000000000000040
:1002BE000000000000000000000000000000000030
:1002CE00000000000000000000000000000000061A
:1002DE00000780038001C000E00060006000700035
:1002EE003000300030003000300030007000600010
:1002FE006000E000C00080018003000700060000DF
:10030E0000000000000000000000000000003000AF
:10031E007000E000C000C0018001800300030003F4
:10032E000007000600060006000600070003000393
:10033E0080038001C001C00060007000300000002A
:10034E00000000000000000000000000000080001F
:10035E0080008000980CF80EE003E003B80E880CC5
:10036E00800080000000000000000000000000007F
:10037E00000000000000000000000000000000006F
:10038E00000000000000000000000000000000005F
:10039E0000000000000000000000C000C000C0000F
:1003AE00C000C001FE3FFE3FC000C000C000C00044
:1003BE00C00000000000000000000000000000006F
:1003CE00000000000000000000000000000000001F
:1003DE00000000000000000000000000000000000F
:1003EE00000000000000000000000000C001C0017D
:1003FE00C001C0018001C001E000780000000000D3
:10040E0000000000000000000000000000000000DE
:10041E0000000000000000000000000000000000CE
:10042E0000000000F007F0070000000000000000D0
:10043E0000000000000000000000000000000000AE
:10044E00000000000000000000000000000000009E
:10045E00000000000000000000000000000000008E
:10046E00000000000000000000000000C001E001DC
:10047E00E001C001000000000000000000000000CC
:10048E000000000000000000000000000000000856
:10049E00000C000C0006000600070003000380019C
:1004AE008001C000C000E00060006000300030003D
:1004BE001800180018000C000C00000000000000CE
:1004CE00000000000000000000000000000000001E
:1004DE000000F007F80F1C0C0C1C0C1C0E1C063F29
:1004EE00863BC6397E383E181E180C180C1C1C0C88
:1004FE00F80FF003000000000000000000000000F4
:10050E0000000000000000000000000000000000DD
:10051E000000C001F001FC018C018001800180010E
:10052E0080018001800180018001800180018001B5
:10053E00FC1FFC1F00000000000000000000000077
:10054E00000000000000000000000000000000009D
:10055E000000F803FC070C0E000C000C000C000C45
:10056E00000E00078003C001E000700038001C0080
:10057E00FC1FFC1F00000000000000000000000037
:10058E00000000000000000000000000000000005D
:10059E000000FC03FC07000E000C000C000E000611
:1005AE00F003F007000E001C00180018001C000ECF
:1005BE00FC07FC030000000000000000000000002B
:1005CE00000000000000000000000000000000001D
:1005DE00000080078007C007C00660067006300660
:1005EE0018061C060C060606FE3FFE3F0006000619
:1005FE0000060006000000000000000000000000E1
:10060E0000000000000000000000000000000000DC
:10061E000000F80FF80F1800180018001800180046
:10062E00F803800F000E001C001C001C000C000EB6
:10063E00FC07FC01000000000000000000000000AC
:10064E00000000000000000000000000000000009C
:10065E000000C00FE00F700018001C000C000C0012
:10066E00FC0F3C1E0C180C180C180C181C18181C1F
:10067E00F80FF00300000000000000000000000072
:10068E00000000000000000000000000000000005C
:10069E000000FC1FFC1F0018000C000C00060006DA
:1006AE000003000380038001C001C000E000600071
:1006BE00700030000000000000000000000000008C
:1006CE00000000000000000000000000000000001C
:1006DE000000F007380E1C1C0C1C0C1C1C0C780E99
:1006EE00F003E007780F1C1C0C180C180C181C1CBF
:1006FE00FC0FF007000000000000000000000000EA
:10070E0000000000000000000000000000000000DB
:10071E000000F007380F1C0C0C1C0E180E180E18CB
:10072E000C183C1FF81F0018001C000C000E800750
:10073E00FC03FC00000000000000000000000000B0
:10074E00000000000000000000000000000000009B
:10075E0000000000000000000000C001C001C00148
:10076E00000000000000000000000000C000C001FA
:10077E00C001C001000000000000000000000000E9
:10078E00000000000000000000000000000000005B
:10079E0000000000000000000000C001C001C00108
:1007AE00000000000000000000000000C001C001B9
:1007BE00C00380038001C001E00070000000000053
:1007CE00000000000000000000000000000000001B
:1007DE000000000000000000000E00078003C001B2
:1007EE00E00038001C0038007000E000C0018007F7
:1007FE00000E0004000000000000000000000000D9
:10080E0000000000000000000000000000000000DA
:10081E0000000000000000000000000000000000CA
:10082E00FC1F000000000000FC1FFC1F0000000069
:10083E0000000000000000000000000000000000AA
:10084E00000000000000000000000000000000009A
:10085E00000000000000000018007000E000C00161
:10086E0080030007001C000E00078003C00170000B
:10087E00380018000000000000000000000000001A
:10088E00000000000000000000000000000010004A
:10089E00F001C0030007000E000C000C000E000E4D
:1008AE00E007E00160004000400000000000E000B2
:1008BE00E000E0000000000000000000000000006A
:1008CE000000000000000000000000000000800397
:1008DE00E00F301818300C300C300620C627E667B3
:1008EE006266336633263323332333333333F31FB6
:1008FE00E31E0200060006000C001C06F8070000AE
:10090E0000000000000000000000000000000000D9
:10091E000000C001E003E0036003700730063006FC
:10092E00380E180E180C1C1CFC1FFC1F0E38063837
:10093E0006300770000000000000000000000000FC
:10094E000000000000000000000000000000000099
:10095E000000FC07FC0F0C1C0C1C0C1C0C1C0C0EC1
:10096E00FC07FC0F0C1E0C180C180C180C180C1C89
:10097E00FC0FFC030000000000000000000000005F
:10098E000000000000000000000000000000000059
:10099E000000E01FF01F38001C000C000C000E00C1
:1009AE000E000E000E000E000C000C001C00381085
:1009BE00F01FE01F0000000000000000000000001B
:1009CE000000000000000000000000000000000019
:1009DE000000FC03FC0F0C0E0C1C0C180C380C3811
:1009EE000C300C300C380C380C180C180C1C0C0F6E
:1009FE00FC07FC01000000000000000000000000E9
:100A0E0000000000000000000000000000000000D8
:100A1E000000F80FF80F1800180018001800180042
:100A2E00F80FF80F1800180018001800180018001A
:100A3E00F80FF80F0000000000000000000000009A
:100A4E000000000000000000000000000000000098
:100A5E000000F80FF80F1800180018001800180002
:100A6E00F80FF80F180018001800180018001800DA
:100A7E001800180000000000000000000000000038
:100A8E000000000000000000000000000000000058
:100A9E000000E01FF01F38001C000C000E000600C6
:100AAE000600061F061806180E180E181C18381801
:100ABE00F81FE01F00000000000000000000000012
:100ACE000000000000000000000000000000000018
:100ADE0000000C180C180C180C180C180C180C180C
:100AEE00FC1FFC1F0C180C180C180C180C180C18EA
:100AFE000C180C18000000000000000000000000A0
:100B0E0000000000000000000000000000000000D7
:100B1E000000FC0FFC0FC000C000C000C000C000F1
:100B2E00C000C000C000C000C000C000C000C000B7
:100B3E00FC0FFC0F00000000000000000000000091
:100B4E000000000000000000000000000000000097
:100B5E000000F807F807000600060006000600066B
:100B6E000006000600060006000600060006000746
:100B7E00F803F80100000000000000000000000073
:100B8E000000000000000000000000000000000057
:100B9E0000000C1C0C0E0C060C038C03CC01EC009C
:100BAE007C007C00FC00CC018C018C030C070C0E2D
:100BBE000C1C0C1C000000000000000000000000D7
:100BCE000000000000000000000000000000000017
:100BDE00000018001800180018001800180018005F
:100BEE001800180018001800180018001800180037
:100BFE00F81FF81F000000000000000000000000B9
:100C0E0000000000000000000000000000000000D6
:100C1E0000001C1C1C1C1E1E3E1636163633663378
:100C2E006631E631C631C630063006300630063043
:100C3E00063006300000000000000000000000003A
:100C4E000000000000000000000000000000000096
:100C5E0000001C181C183C183C187C186C18EC185A
:100C6E00CC18CC198C198C1B0C1B0C1B0C1E0C1EBF
:100C7E000C1C0C1C00000000000000000000000016
:100C8E000000000000000000000000000000000056
:100C9E000000F007780F1C1C0C180E3806380630B2
:100CAE00063006300630063006380E180C181C0CAE
:100CBE00F80FF0030000000000000000000000002C
:100CCE000000000000000000000000000000000016
:100CDE000000FC07FC0F0C1C0C180C180C180C1840
:100CEE000C1C1C0EFC07FC010C000C000C000C0074
:100CFE000C000C00000000000000000000000000CE
:100D0E0000000000000000000000000000000000D5
:100D1E000000F007F80F1C1C0C180E3806380630B1
:100D2E00063006300630063006380E180C181C0C2D
:100D3E00F80FF003C000C0018023007F001E0000EA
:100D4E000000000000000000000000000000000095
:100D5E000000FC03FC0F0C0E0C0C0C0C0C0C0C0EFF
:100D6E009C07FC039C030C070C060C0E0C0C0C1CB5
:100D7E000C180C38000000000000000000000000FD
:100D8E000000000000000000000000000000000055
:100D9E000000F00F780E1C000C000C001C003C0034
:100DAE00F801E007800F001C001C0018001C001C3E
:100DBE00FC0FFC030000000000000000000000001B
:100DCE000000000000000000000000000000000015
:100DDE000000FE3FFE3FC000C000C000C000C000CB
:100DEE00C000C000C000C000C000C000C000C000F5
:100DFE00C000C00000000000000000000000000065
:100E0E0000000000000000000000000000000000D4
:100E1E0000000C180C180C180C180C180C180C18C8
:100E2E000C180C180C180C180C180C180C181C1C80
:100E3E00F80FF003000000000000000000000000AA
:100E4E000000000000000000000000000000000094
:100E5E000000077006300E380E380C181C1C1C1CB7
:100E6E00180C180E38063006300670036003E003C7
:100E7E00E001C001000000000000000000000000C2
:100E8E000000000000000000000000000000000054
:100E9E000000063006300630063006300630C63109
:100EAE00C631C631E61366136413341734163C1E6E
:100EBE001C1C1C1C000000000000000000000000B4
:100ECE000000000000000000000000000000000014
:100EDE0000000E380C1C1C0C380E30067003E0039C
:100EEE00C001C001E00360033007380E180C1C1C53
:100EFE000E38063800000000000000000000000060
:100F0E0000000000000000000000000000000000D3
:100F1E00000007300E380C181C1C180C380E30064A
:100F2E007003E003C001C001C000C000C000C000DB
:100F3E00C000C00000000000000000000000000023
:100F4E000000000000000000000000000000000093
:100F5E000000FC1FFC1F001C000E00060007800393
:100F6E008001C001E00060007000380018001C0015
:100F7E00FC1FFC1F0000000000000000000000002D
:100F8E000000000000000000000000000000E0076C
:100F9E00E0076000600060006000600060006000BC
:100FAE006000600060006000600060006000600033
:100FBE00600060006000600060006000E0070000FC
:100FCE0000000000000000000000000000000C0007
:100FDE001800180038003000300060006000C000BB
:100FEE00C000C0018001800100030003000600065E
:100FFE000006000C000C0018001800000000000095
:10100E000000000000000000000000000000F003DF
:10101E00F0030003000300030003000300030003BA
:10102E00000300030003000300030003000300039A
:10103E00000300030003000300030003F00300009D
:10104E000000000000000000000000000000000092
:10105E000000C001E001600330033006180C180CCC
:10106E000C1800000000000000000000000000004E
:10107E000000000000000000000000000000000062
:10108E000000000000000000000000000000000052
:10109E000000000000000000000000000000000042
:1010AE000000000000000000000000000000000032
:1010BE00000000000000000000000000FF7F0000A4
:1010CE000000000000000000000000000000000012
:1010DE007000E000000000000000000000000000B2
:1010EE0000000000000000000000000000000000F2
:1010FE0000000000000000000000000000000000E2
:10110E0000000000000000000000000000000000D1
:10111E0000000000000000000000F807380F000C6F
:10112E00001C001CE01FF81F1C1C0C1C0C1C0C1EB1
:10113E00FC1FF81900000000000000000000000075
:10114E0000000000000000000000000000000C0085
:10115E000C000C000C000C000C00CC0FFC0E3C1C08
:10116E001C180C180C180C180C180C180C1C1C0C39
:10117E00FC07F80300000000000000000000000063
:10118E000000000000000000000000000000000051
:10119E0000000000000000000000E00FF00C38001E
:1011AE0018001C000C000C000C001C00180038006D
:1011BE00F00FE00F00000000000000000000000033
:1011CE000000000000000000000000000000001CF5
:1011DE00001C001C001C001C001CF01F781E1C1C98
:1011EE000C1C0C1C0C1C0C1C0C1C0C1C0C1E1C1F9C
:1011FE00F81BF018000000000000000000000000C6
:10120E0000000000000000000000000000000000D0
:10121E0000000000000000000000F007780E181C0F
:10122E000C180C18FC1FFC1F0C000C000C001C00F2
:10123E00F80FE00F000000000000000000000000AA
:10124E000000000000000000000000000000001E72
:10125E00803FC001C000E000E000E000E000FE1FA3
:10126E00E000E000E000E000E000E000E000E00070
:10127E00E000E000000000000000000000000000A0
:10128E000000000000000000000000000000000050
:10129E0000000000000000000000F03F383E1C0C73
:1012AE000C0C0C0C1C0C380EF807CC000C001C009F
:1012BE00FC0FF81F0C380E380E181C1EF80F00000D
:1012CE0000000000000000000000000000000C0004
:1012DE000C000C000C000C000C00CC07FC0E3C1C8F
:1012EE001C1C0C180C180C180C180C180C180C18BC
:1012FE000C180C1800000000000000000000000098
:10130E0000000000000000000000000000000000CF
:10131E00C001C001C00000000000F801F80180010A
:10132E0080018001800180018001800180018001A7
:10133E00FC1FFC1F00000000000000000000000069
:10134E00000000000000000000000000000000008F
:10135E0000070007000600000000FC07FC0700065F
:10136E00000600060006000600060006000600063F
:10137E0000060006000600060007CC03FC01000074
:10138E000000000000000000000000000000180037
:10139E0018001800180018001800181C180E18074E
:1013AE009803D801F800F800D80198031807180E12
:1013BE00181C181C000000000000000000000000B7
:1013CE000000000000000000000000000000F80116
:1013DE00F801C0018001800180018001800180013F
:1013EE0080018001800180018001800180018001E7
:1013FE00FC1FFC1F000000000000000000000000A9
:10140E0000000000000000000000000000000000CE
:10141E0000000000000000000000F61EDE1ECE31AF
:10142E00CE31C631C630C630C630C630C630C630F4
:10143E00C630C630000000000000000000000000B2
:10144E00000000000000000000000000000000008E
:10145E0000000000000000000000CC07FC0E3C1C49
:10146E001C1C0C180C180C180C180C180C180C183A
:10147E000C180C1800000000000000000000000016
:10148E00000000000000000000000000000000004E
:10149E0000000000000000000000F007780F1C1C88
:1014AE000C180E180E1806180E180E180C181C0C08
:1014BE00F80FF00300000000000000000000000024
:1014CE00000000000000000000000000000000000E
:1014DE0000000000000000000000CC0FFC0E3C1CC1
:1014EE001C180C180C180C180C180C180C1C1C0CB6
:1014FE00FC07FC030C000C000C000C000C000000A0
:10150E0000000000000000000000000000000000CD
:10151E0000000000000000000000F01F781E1C1CE0
:10152E000C1C0C1C0C1C0C1C0C1C0C1C0C1E1C1F58
:10153E00F81BF018001C001C001C001C001C0000F6
:10154E00000000000000000000000000000000008D
:10155E0000000000000000000000980FF81F78182F
:10156E00381818181800180018001800180018005D
:10157E00180018000000000000000000000000002D
:10158E00000000000000000000000000000000004D
:10159E0000000000000000000000F00F780C1800A2
:1015AE0018003800F800E007000F000C000C000CCB
:1015BE00F80FF8030000000000000000000000001B
:1015CE00000000000000000000000000000000000D
:1015DE0000006000600060007000FE1FFE1F6000D3
:1015EE006000600060006000600060006000E0006D
:1015FE00E01FC01F000000000000000000000000FF
:10160E0000000000000000000000000000000000CC
:10161E00000000000000000000000C180C180C1850
:10162E000C180C180C180C180C180C1C1C1C1C1E5E
:10163E00F81BF01900000000000000000000000080
:10164E00000000000000000000000000000000008C
:10165E00000000000000000000000E380C180C1CEA
:10166E001C0C180C380E3006300670036003E003B5
:10167E00E001C001000000000000000000000000BA
:10168E00000000000000000000000000000000004C
:10169E00000000000000000000000630063006309A
:1016AE00C630C631C611E4196C1B6C1B3C1B3C1EAC
:1016BE003C1E1C0E00000000000000000000000098
:1016CE00000000000000000000000000000000000C
:1016DE00000000000000000000001C181C0C380E5A
:1016EE0070066003E003C001E00370033006380E9D
:1016FE001C1C0E380000000000000000000000005E
:10170E0000000000000000000000000000000000CB
:10171E00000000000000000000000E380C181C1C19
:10172E001C0C180C380E3006300670076003E003F0
:10173E00C001C001C001E000600078001E00000082
:10174E00000000000000000000000000000000008B
:10175E0000000000000000000000FC0FFC0F000E57
:10176E00000780038001C001E00070003000180007
:10177E00FC0FFC0F00000000000000000000000045
:10178E000000000000000000000000000000000F3C
:10179E00800FC001C000C000C000C000C000C0006B
:1017AE00C00070003C007000C000C000C000C0004F
:1017BE00C000C000C000C000C0008003800F000049
:1017CE0000000000000000000000C000C000C000CB
:1017DE00C000C000C000C000C000C000C000C000FB
:1017EE00C000C000C000C000C000C000C000C000EB
:1017FE00C000C000C000C000C000C000C00000009B
:10180E000000000000000000000000000000780052
:10181E00F800C001800180018001800180018001FB
:10182E0080010007001E00078001800180018001F9
:10183E008001800180018001C001E000780000007D
:10184E00000000000000000000000000000000008A
:10185E00000000000000000000000000000000007A
:10186E003800FC30CE31861F061F0000000000003D
:10187E00000000000000000000000000000000005A
:10188E0080910503E0910403F0E0E050FF4FE80F74
:10189E00F11D90819D30E1F485B58E7F85BD85B5B6
:1018AE008D7F85BD2F982A9A1092050310920403FE
:1018BE0010920603109203031092080344EF51E0B6
:1018CE006DE070E080E091E00E94460E80E003C083
:1018DE00883108F049C0E0910403F0E0E050FF4F7A
:1018EE00E80FF11D808190E08097002496958795F2
:1018FE000794969587950794982F802D9093FD02C7
:10190E008093FC022091060330910303E22FF0E056
:10191E00E30FF11DE80FF91FE253FF4FE4912F5F24
:10192E0020930603EEBD0DB407FEFDCF8091060396
:10193E00E0910303F0E0E80FF11D8091FC0290911D
:10194E00FD02E80FF91FE253FF4FE491EEBD0DB417
:10195E0007FEFDCF10920603809105038F5F8093E3
:10196E000503883108F4B7CF109205038091030365
:10197E008E5F8093030395B180E4982795B995B156
:10198E00892785B9809103038F3338F08091040342
:0C199E00885E80930403109203030895F8
:1019AA008FEF84B98FE087B918B8569A559A52982A
:1019BA00579854985E985A9A5D985F9A2E9A5C9AAC
:1019CA0085B18C6285B980E78CBD81E08DBD23E34A
:1019DA0030E03093C5002093C4001092C00098E90B
:1019EA009093C10096E09093C200109269008DBB5B
:1019FA0097E690937C009FEE90937A0094E0909300
:101A0A007B0014BC15BC93E797BD96E498BD93E39D
:101A1A0094BD9BE095BD80936E0095B583E08927C0
:101A2A0085BD78944F99FECF4F9BFECF0E949B0DA8
:061A3A000E942E0EF7CF02
:101A40001F920F920FB60F9211242F933F934F9333
:101A50005F936F937F938F939F93AF93BF93EF9316
:101A6000FF93E0910803F0E0EC50FD4F808188B9CE
:101A700094B580E3892784BD809108038F5F8093AC
:101A80000803809102038F5F80930203843021F466
:101A90000E94470C1092020380910803883011F4D1
:101AA00010920803FF91EF91BF91AF919F918F9199
:101AB0007F916F915F914F913F912F910F900FBE4A
:061AC0000F901F90189525
:101AC6001F921FB61F9211248F939F93EF93FF933C
:101AD600E0910003F09101038091C600E050FF4FB2
:101AE6008083E0910003F0910103E050FF4F808175
:101AF6008D3069F480910003909101039093FF0269
:101B06008093FE02109201031092000309C0809197
:101B160000039091010301969093010380930003C3
:101B2600FF91EF919F918F911F901FBE1F90189567
:101B3600CF93DF93E0910003F0910103E050FF4F54
:101B460080818D3011F1E0ECF0E0C6ECD0E02A980F
:101B5600808185FFFDCFA0910003B0910103A050C5
:101B6600BF4F8C9188838091000390910103019669
:101B76009093010380930003A0910003B0910103A9
:101B8600A050BF4F8C918D3011F710920103109227
:0A1B960000032A9ADF91CF91089511
:101BA000E091FE02F091FF029F01ABEABAEA0E94C7
:101BB0001F0E929582958F7089279F7089278F5F5E
:101BC0008093070328E1829FC0011124E817F907D9
:101BD00071F0E050FF4FAC0140505F4F20E2219385
:101BE000E417F507E1F79093FF028093FE02FC01F2
:0A1BF000E050FF4F2DE02083089520
:101BFA008F938FB78F9380917900893140F42F9812
:101C0A002A9A85B58E7F85BD85B58D7F85BD8F91D5
:061C1A008FBF8F911895A9
:101C20008F938FB78F932F982A9A85B58E7F85BD16
:0E1C300085B58D7F85BD8F918FBF8F911895E3
:101C3E00A29FB001B39FC001A39F700D811D1124FF
:0E1C4E00911DB29F700D811D1124911D0895EE
:101C5C002A980E94D00D0E94470C2F9A8AE088B9CE
:0A1C6C0095B583E0892785BD089532
:101C7600EC010E94540E0E94530ECE010E94550E96
:061C8600CE010E94510E88
:101C8C00FC01480F591FE417F50711F06193FBCFC6
:021C9C000895A9
:041C9E000C940000A2
:041CA2000E94650037
:021CA60008959F
:021CA80008959D
:021CAA0008959B
:081CAC000A0206040501090803
:00000001FF
